:02000000000CF2
:040800008FEF04F082
:08080800046ED8CF05F0E0CF2B
:1008100006F00001E9CF0CF0EACF07F0E1CF08F0D5
:10082000E2CF09F0D9CF0AF0DACF0BF0F3CF12F014
:10083000F4CF13F0FACF14F0F5CF15F0F6CF16F091
:10084000F7CF17F000C00EF001C00FF002C010F09B
:1008500003C011F09DAA30EF04F09EBA57EF04F0E8
:100860000EC000F00FC001F010C002F011C003F084
:100870000CC0E9FF07C0EAFF078E08C0E1FF09C00E
:10088000E2FF0AC0D9FF0BC0DAFF12C0F3FF13C0AA
:10089000F4FF14C0FAFF15C0F5FF16C0F6FF17C02D
:1008A000F7FF045006C0E0FF05C0D8FF10009EAA65
:1008B000FED7AECF19F019C001F09E9A30EF04F0C8
:1008C000436F6E6578696F6E20457869746F7361E8
:1008D00000000900F5520DE0F6CF1AF0F7CF1BF03B
:1008E000F5509EA8FED7AD6E1AC0F6FF1BC0F7FFED
:1008F000F0D7D4EF04F0EA6A1A0EE96EEF500DE07B
:10090000010E016E006A002EFED7012EFBD79E0E4F
:10091000006E002EFED7EF2EF3D7DAEF04F0F86A60
:10092000D09E078EEA6AE96A196AB886810EAF6EB0
:10093000000EB06EA60EAC6E900EAB6EC150C00B2A
:100940000F09C16E070EB46EC150C00B0F09C16E06
:100950009698C66AD190800ED56ECD6A000ECA6E8A
:10096000000ECB6E070EB46E9250926E030E006EA8
:10097000002EFED700D0B450A19CB56A9D8AC00E4F
:10098000F212710ED36E800E9B6ED350B886810E1C
:10099000AF6E000EB06EA60EAC6E000E956EC00E61
:1009A000F66E080EF76E95D7956A19C08CFF190E72
:0809B0001A6EA1D7F9D703006C
:020000040030CA
:0E0000003CCC390E0087A1000FC00FE00F406E
:00000001FF
;PIC18F4550
;CRC=ED25  CREATED="30-may-11 20:36"
