:02000000000CF2
:04080000FFEF0BF00B
:08080800046ED8CF05F0E0CF2B
:1008100006F00001E9CF0CF0EACF07F0E1CF08F0D5
:10082000E2CF09F0D9CF0AF0DACF0BF0F3CF12F014
:10083000F4CF13F0FACF14F0F5CF15F0F6CF16F091
:10084000F7CF17F000C00EF001C00FF002C010F09B
:1008500003C011F0A0AA30EF04F0A1BAA8EF09F08C
:100860000EC000F00FC001F010C002F011C003F084
:100870000CC0E9FF07C0EAFF078E08C0E1FF09C00E
:10088000E2FF0AC0D9FF0BC0DAFF12C0F3FF13C0AA
:10089000F4FF14C0FAFF15C0F5FF16C0F6FF17C02D
:1008A000F7FF045006C0E0FF05C0D8FF1000F76A4C
:1008B000BE0FF66E080EF7220900F5501200000276
:1008C000FFFFFFFFFFFFFFFFFFFFFFFFFFFFF76AD5
:1008D000DE0FF66E080EF7220900F55012004000F8
:1008E00020000000000000000000000000000000E8
:1008F0000000000000000000000000000000F76A97
:100900000E0FF66E090EF7220900F55012000902CB
:100910002000010100C0320904000002FFFFFF00B7
:100920000705810220000107050102200001F76A86
:100930003E0FF66E090EF7220900F5501200010075
:10094000F76A500FF66E090EF7220900F5501200F3
:100950001201100100000040D8040B000100010248
:100960000001F76A720FF66E090EF7220900F550C2
:10097000120000041400F76A860FF66E090EF722C3
:100980000900F55012000403090410036A00500026
:1009900069006300550073006200120347006500A0
:1009A00072006F002000550053004200F76ABC0F30
:1009B000F66E090EF7220900F5501200280C010608
:1009C0006D92699468A402D06894FCD7B4EF09F0E2
:1009D000400E0401016F040E036F100E026F880EAB
:1009E000006F046B040E076F500E066F0001000CC1
:1009F00070A002D0EDDF7090689ABDEF09F06A6ACE
:100A00006892C3EF09F0679166BF6781669F665180
:100A1000100803E2000E016E17D067A10BD0036A25
:100A2000665145DFFF0802E1000E01D0010E016EA4
:100A30000BD00AD0036A66513ADFFF0802E1000ECC
:100A400001D0010E016E00D0000C036A6551700FD9
:100A5000E96E0F0E0320EA6EEF6A65C066F0D3DF21
:100A6000015218E06551080DF350676BE96E040EF2
:100A70006725EA6EEF6A6551080DF350676B666F84
:100A8000040E6627000E672366C0E9FF040E672583
:100A9000EA6EEF6A000C010E646F64510F0805E303
:100AA00064C065F0D2DF642BF8D7000C5A6A5A5242
:100AB0000AE1036A5A50240FE96E000E0320EA6E21
:100AC000EF6A5A2AF4D71B6A010E1C6E1A6A000CD0
:100AD0006896000C6A6A686A9F0E6B6E3D0E696EBE
:100AE0006E6AD9DFE3DF160E706E68A602D0F0DF03
:100AF000FCD76D986DDF030E1F6EC9EF09F0698496
:100B000068986D82CFEF09F0689CD5EF09F05FC05F
:100B100020F0000CFF0E206E000C5D6A235226E0D0
:100B20005D503F0823E31D5005E0020A08E0010A7A
:100B30000BE00FD0036A2250E2DE5E6E0AD0036A39
:100B4000225019DF5E6E05D0036A2250F9DE5E6E18
:100B500000D0222A23065D505D2A036A500FE96EF9
:100B6000040E0320EA6E5EC0EFFFD8D7235204E1E3
:100B70005D50400801E01A6A5DC05FF0C8DF000CFC
:100B8000226A1D6A04011351010A000105E0030AEB
:100B900008E0010A09E015D0120E236E030E1D6E47
:100BA00012D0200E236E0FD0020E1D6E036A0401B8
:100BB00012510001D6DE226E036A2250DCDE236E63
:100BC00002D0A8DF0CD00401175305E12350165DB5
:100BD00002E216C423F0010E1A6E00019EDFFBEF45
:100BE00006F05C5204E1040E1F6E55DFB1D0050E15
:100BF0001F6E040E5F6E900E5E6E010E5D6E5D5098
:100C00000F08D8A0A5D05DC065F01FDF606B036A38
:100C10005D504DDEFF084DE0040E606FD8905D34EE
:100C2000036A55DE0900F5CF03F0616F03C062F07F
:100C30005D50080DF350656B646F010E6425016E05
:100C4000000E6521036E01C0E9FF040E0324EA6E65
:100C500061C0EFFF5D50080DF350656B646F020ECD
:100C60006425016E000E6521036E01C0E9FF040ECC
:100C70000324EA6E5FC0ECFFED525EC0EFFFD89038
:100C80005D34036A24DE0900F5CF03F05E260350CD
:100C90005F22880E636F62B1638162B363835D50CC
:100CA000080DF350656BE96E040E6525EA6E63C0AE
:100CB000EFFF036A5D50FBDDFF0834E060835D50A9
:100CC000080DF350656B646F040E6427000E6523F6
:100CD000020E6425016E000E6521036E01C0E9FF5E
:100CE000040E0324EA6E5FC0ECFFED525EC0EFFF1E
:100CF000D8905D34036AEBDD0900F5CF03F05E2682
:100D000003505F225D50080DF350656B646F040E55
:100D10006427000E652364C0E9FF040E6525EA6EB2
:100D2000400EEF6E6051060802E10E0E606F036A1E
:100D30005D50BDDD0108D8A46089036A5D50700F65
:100D4000E96E0F0E0320EA6E60C0EFFF5D2A57D7F1
:100D5000F5EF06F004011151000A00010DE0010A4F
:100D600014E0020A1EE0060A27E0030A2CE00E0A3D
:100D70002CE0010A30E03DD01CC050F40401516B5E
:100D8000020E5F6E0001C3DE36D00401122D06D0C4
:100D9000010E1C165F6A0001BADE02D00001BADE45
:100DA0002AD00401122D05D01C825F6A0001AFDE3B
:100DB00002D00001AFDE1FD0020E1A6E12C421F065
:100DC0005F6AA5DE18D0DCD616D01BC050F4010E29
:100DD0005F6E9DDE10D004011251010808E312C4B9
:100DE0001BF012C45CF00001FCD65F6A90DE0001CB
:100DF00002D090DE00D0F8EF07F01BC05CF00401D9
:100E00001151000A000105E00A0A0BE0010A26E080
:100E100037D00401506B516B020E5F6E000177DE1C
:100E200031D05C5219E0010E5C5C036A80DD016E1A
:100E30000401145DD8A002D000010ED0036A145141
:100E4000240FE96E000E0320EA6EEFCF50F4010E7E
:100E50005F6E00015CDE01D05DDE14D05C520EE0FE
:100E6000036A04011451240FE96E000E0320EA6E98
:100E700012C4EFFF5F6A00014ADE01D04BDE02D0F0
:100E800049DE00D0F8EF07F05D905CBE5D805C9EAF
:100E90005DA011D05C50080DF3505F6A5E6E040EC9
:100EA0005E26000E5F225EC0E9FF040E5F24EA6E3C
:100EB000880EEF6E09D05C50080DF3505F6AE96E42
:100EC000040E5F24EA6EEF6AC6EF07F05D905CBE29
:100ED0005D805C9E5DA011D05C50080DF3505F6A90
:100EE0005E6E040E5E26000E5F225EC0E9FF040EF9
:100EF0005F24EA6E840EEF6E0AD05C50080DF3504A
:100F00005F6AE96E040E5F24EA6E840EEF6ECCEF2A
:100F100007F05D905CBE5D805C9E5DA011D05C5072
:100F2000080DF350606B5F6E040E5F26000E6023A9
:100F30005FC0E9FF040E6025EA6EEFCF5EF00AD0D5
:100F40005C50080DF350606BE96E040E6025EA6E8C
:100F5000EFCF5EF05EAE02D05EB402D0000E01D0E4
:100F6000010E016ED6EF07F014C466F04CDD01529D
:100F700029E004011151010A000105E0020A09E01B
:100F8000030A0DE01DD014C45CF07ED75F6ABFDD9C
:100F900019D014C45CF09AD75F6AB9DD13D004018C
:100FA000506B516B14C45CF00001B3D7015204E0E4
:100FB000010E0401506F0001020E5F6EA8DD02D029
:100FC000A9DD00D0F8EF07F01A6A040110517F0B79
:100FD000000A000105E0010A05E0030A05E006D069
:100FE000B9D606D00AD704D0BFD702D093DD00D03F
:100FF00017EF09F05C50080DF350626BE96E040EB8
:101000006225EA6EEFCF5EF05D50020806E15EAC4D
:1010100002D05D6A02D0010E5D6E5D50030813E1DF
:10102000840E5E6E5C50080DF350626B616F040EAF
:101030006127000E622361C0E9FF040E6225EA6E9B
:10104000840EEF6E07D05D2C03D0C80E5E6E02D00A
:10105000880E5E6ED8905C34036A39DC0900F5CFE7
:1010600003F05F6E03C060F05C50080DF350626BDC
:10107000616F010E6125016E000E6221036E01C0D9
:10108000E9FF040E0324EA6E5FC0EFFF60B15E80EB
:1010900060B35E825C50080DF350626BE96E040E23
:1010A0006225EA6E5EC0EFFF000C036A6151700FAB
:1010B000E96E0F0E0320EA6EEF5212E06151080D47
:1010C000F350636B626F040E6227000E632362C0ED
:1010D000E9FF040E6325EA6EEFCF62F062AF02D043
:1010E000000E01D0010E016E79EF08F05CC061F0D6
:1010F000DCD7015262E05C50080DF350626B616F07
:10110000040E6127000E6223010E6125016E000EA0
:101110006221036E01C0E9FF040E0324EA6E5DC084
:10112000EFFF5F50020817E15C50080DF350626B4F
:10113000616F040E6127000E622361C0E9FF040E97
:101140006225EA6EEFCF60F060AD02D05F6A02D038
:10115000010E5F6E13D05F50040810E15C50080D63
:10116000F350626BE96E040E6225EA6EEFCF60F019
:1011700060AD03D0010E5F6E01D05F6A5F2C03D0BB
:10118000C80E606F02D0880E606F5EB060815EB284
:1011900060835C50080DF350626B616F040E612731
:1011A000000E622361C0E9FF040E6225EA6E60C092
:1011B000EFFF010E016E03D000D0000E016E000C97
:1011C0005C5200E1000C5DC06EFF5D5203E0040E56
:1011D0001F6E02D0020E1F6EF3EF08F01B6A1A6A30
:1011E00021C05DF0F0D7FFEF08F05C5208E11A2C47
:1011F00002D093DC04D01A50020801E1EFD7000CB2
:101200001E305A6E5A325A321F0E5A161E5242E180
:10121000040100513C0B5B6E430E00175B50340819
:101220001EE10451800B01E0046B0001CDD66D98E6
:10123000203C05D05C6A030E5D6EDCDE0ED05C6A7D
:10124000020E5D6ED7DE2050FE0807E05C6A5E6A23
:1012500020C05DF0040E5F6E49DF19D004015B50C1
:10126000040816E15C6A0001ABDF5C6A020E5D6E89
:10127000C1DE2050FE080AE0203C01D007D05C6AA5
:101280005E6A20C05DF0010E5F6E30DF00D00401A9
:101290005CD000011E50040814E1430E0401041741
:1012A000FF0E206E5C6A0001A0DF203C01D008D058
:1012B0005C6A5E6A20C05DF0020E5F6E17DF00D0D0
:1012C00043D01EB41BD05A50080DF3505D6A016E16
:1012D000040E5D24036E5A50080DF3505F6AE96EE8
:1012E000040E5F24EA6EEF50430B03C0EAFF01C017
:1012F000E9FFEF6E5AC05CF063DF26D05A50080D4C
:10130000F3505D6A5C6E040E5C26000E5D225CC0CC
:1013100001F0040E5D24036E5A50080DF3505F6A0D
:101320005E6E040E5E26000E5F225EC0E9FF040EB4
:101330005F24EA6EEF50430B03C0EAFF5CC0E9FF95
:10134000EF6E5AC05CF051DF04010001DFEF09F0DD
:10135000A19A1F5201E139D0685237E068A404D045
:1013600069A402D0E0EF04F06DA201D02ED068AAEB
:1013700004D069AA02D0F8EF04F068A204D069A2F0
:1013800002D0FFEF04F068A004D069A002D06AEF99
:1013900005F068A804D069A802D07FEF05F068AC1A
:1013A00004D069AC02D084EF05F0596A68A608D071
:1013B00069A606D06CCF1EF068EC05F021D701D0ED
:1013C00004D05950592A0308F1E230EF04F0EA6AD8
:1013D0004D0EE96EEF500EE00F0E016E006A002E0A
:1013E000FED7012EFBD78F0E006E002EFED7000019
:1013F000EF2EF2D7000C5338F00B006E0F0E831453
:101400000010836E00008382070E006E002EFED750
:1014100000D08392000C8390EF0E006E002EFED75A
:1014200000D050A0839050B0838000008392513848
:10143000526E0F0E521652C053F0DDDF51500F0B9B
:10144000526E536ED8DF000C000E956E839083921F
:101450000F0E4D6EBCDF010E466E4650030808E3CA
:10146000030E536EC8DF050E4D6EB1DF462AF5D769
:10147000020E536EC0DF466A465003080DE3036A4E
:101480004650D6EC04F0476E506A516EC4DF050E2C
:101490004D6E9DDF462AF0D70DEF0CF0010E4E5C2D
:1014A000FC0F0FE2040F69EF0AF0800E4F6E09D0B7
:1014B000C00E4F6E06D0900E4F6E03D0D00E4F6E02
:1014C00000D0010E4D5C4F26506A4FC051F0A3DF93
:1014D000000CE824F76AF736ED0FF66E140EF722CB
:1014E0000A00F550FA6E0800F550F96EAA14B0140F
:1014F000B614BC146D6A696A080E6F6E9450300998
:10150000946E1F6A196AF2BE198EF29E56EC05F0AF
:1015100019BEF28E8DEF0AF0EDD7B2EF0AF0196A1C
:10152000F2BE198EF29E56EC05F019BEF28E6D6A6F
:10153000140E6F6E696A6D86010E1F6EA3EF0AF0BE
:101540006DB601D0ECD71F2C0BD06DBA09D0686AEC
:10155000696AA08AC00EF212110E696E020E1F6E29
:10156000000CDAD7EDDF1F500208FCE143EF0CF06E
:101570001B5202E10400FCD745EF0CF01B50016E3A
:1015800048EF0CF0036A4650700FE96E0F0E03200F
:10159000EA6EEF520DE04650080DF350486A476E70
:1015A000E96E040E4824EA6EEFCF47F047AE02D052
:1015B000000E01D0010E016E4DEF0CF04D50080DE4
:1015C000F350586A576E020E5724016E000E5820D1
:1015D000036E01C0E9FF040E0324EA6EECCF03F0B2
:1015E000ED52EFCF52F003C053F04D50080DF350C1
:1015F000586A576E010E5724016E000E5820036E74
:1016000001C0E9FF040E0324EA6EEF50036A556E31
:1016100003C056F04D50080DF350586AE96E040EA1
:101620005824EA6EEFCF54F054B0568054B256822C
:101630005650515C08E303E15050555C04E256C03B
:1016400051F055C050F04FC0EAFF4EC0E9FF53C003
:10165000E2FF52C0E1FF51C002F050C001F0015260
:1016600002E0022A02D0025206E0E6CFEEFF012E8F
:10167000FCD7022EFAD750C001F051C002F04CEF57
:101680000BF048C04DF04AC04FF049C04EF04CC07E
:1016900051F04BC050F092D702C04CF001C04BF05B
:1016A000196AF2BE198EF29E48C05CF0020E5D6EA1
:1016B000A1DC19BEF28E4BC001F04CC002F05CEF11
:1016C0000CF04D50016A4C5C03E24CC000F00CD0B1
:1016D000006A080E4E6E4C3600364D50005CD8B095
:1016E000006E01364E2EF7D7000C4C500C0A05E068
:1016F000060A0DE0020A12E016D0506A010E516E81
:101700008ADE010E256E020E4D6E61DE12D0252A94
:10171000010E4D6E25C04EF0C1DE0BD0506A100E8A
:10172000516E79DE06D0010E506E4CC051F073DE62
:1017300000D0000C200E47A8300E486E46C000F0C6
:1017400046AE07D0001E002A00C046F02D0E486E9F
:10175000478E015046C04CF0640E4D6EB2DF00C0A3
:1017600046F0300E0124496E46C04CF00A0E4D6E14
:10177000A8DF300E00244B6E300E01244A6E48C0A4
:1017800000F047A602D047AE479447B80BD047AE0B
:1017900022D047B420D000C049F047B21CD000C0CE
:1017A0004AF019D0300E495C16E100C049F0200E15
:1017B000486E47A604D04794478247AE4792300E02
:1017C0004A5C09E100C04AF0200E496E47A6F7D7EF
:1017D000479247AE479047A403D048C04CF085DFFE
:1017E00047A203D049C04CF080DF47A003D04AC0D5
:1017F0004CF07BDF4BC04CF078DF64EF0CF0F86A04
:10180000D09E078EEA6AE96A1F6A236AC150C00B3C
:101810000F09C16E070EB46E17D6C150C00B0E096A
:10182000C16EC080C092C094C09EC280C69A949E71
:1018300093809392010EC66E000EC76ED190800EFB
:10184000D56ECD6A000ECA6E000ECB6E9484BD6A52
:10185000B76AB66A070EB46E9250926E270E006E8B
:10186000002EFED700D0B450A19C000E956E010E44
:101870004D6E4E6E13DE020E466EFA0E4D6EA7DDF5
:10188000462EFBD76ED65CDE73D6C00EF21276D62D
:10189000015225E0010E466E75D6015220E0476ADE
:1018A000260E466E010E486E47C04AF046C049F00B
:1018B0004C6A200E4B6EE5D62650580810E127C022
:1018C00046F01F0E476E36D7040E466EFA0E4D6E6A
:1018D0007EDD462EFBD7010E4D6E4E6EDFDDD7D777
:0218E000030003
:020000040030CA
:0E00000024CE3E1E008781000FC00FE00F408F
:00000001FF
;PIC18F4550
;CRC=6728  CREATED="19-may-11 18:50"
