:02000000000CF2
:040800003EEF05F0D2
:08080800F76A180FF66E080EE6
:10081000F7220900F5501200280C0106EA6A0E0EB4
:10082000E96EEF500DE0010E016E006A002EFED75A
:10083000012EFBD79E0E006E002EFED7EF2EF3D7B3
:10084000000C1438F00B006E0F0E83140010836E32
:100850000000838200D08392000C8390180E006EFB
:10086000002EFED700D011A0839011B0838000002D
:1008700083921238136E0F0E131613C014F0E1DFBB
:1008800012500F0B136E146EDCDF000C000E956E11
:10089000839083920F0E0E6EC1DF010E076E07501C
:1008A000030808E3030E146ECCDF050E0E6EB6DFF0
:1008B000072AF5D7020E146EC4DF076A0750030833
:1008C0000CE3036A0750A0DF086E116A126EC5DFE1
:1008D000050E0E6EA3DF072AF1D752EF05F0010EC9
:1008E0000F5CFC0F0FE2040F8AEF04F0800E106E15
:1008F00009D0C00E106E06D0900E106E03D0D00E30
:10090000106E00D0010E0E5C1026116A10C012F09D
:10091000A4DF000CE824F76AF7362F0FF66E090EF5
:10092000F7220A00F550FA6E0800F550F96EEC084F
:10093000F208F808FE089EA8FED7AD6E8AEF05F013
:100940000E50016A0D5C03E20DC000F00CD0006A8D
:10095000080E0F6E0D3600360E50005CD8B0006EDB
:1009600001360F2EF7D7000C0D500C0A05E0060AD1
:100970000DE0020A12E016D0116A010E126E6DDF50
:10098000010E046E020E0E6E49DF12D0042A010E13
:100990000E6E04C00FF0A3DF0BD0116A100E126EA2
:1009A0005CDF06D0010E116E0DC012F056DF00D0D4
:1009B000000C200E08A8300E096E07C000F007AE2C
:1009C00007D0001E002A00C007F02D0E096E088E09
:1009D000015007C00DF0640E0E6EB2DF00C007F0CC
:1009E000300E01240A6E07C00DF00A0E0E6EA8DF4D
:1009F000300E00240C6E300E01240B6E09C000F086
:100A000008A602D008AE089408B80BD008AE22D0D1
:100A100008B420D000C00AF008B21CD000C00BF00F
:100A200019D0300E0A5C16E100C00AF0200E096EE3
:100A300008A604D00894088208AE0892300E0B5C19
:100A400009E100C00BF0200E0A6E08A6F7D7089245
:100A500008AE089008A403D009C00DF085DF08A2F5
:100A600003D00AC00DF080DF08A003D00BC00DF04A
:100A70007BDF0CC00DF078DF8FEF05F0F86AD09EB9
:100A8000EA6AE96AB886810EAF6E000EB06EA60EF5
:100A9000AC6E900EAB6EC150C00B0F09C16E070E4D
:100AA000B46EF4D6B886810EAF6E000EB06EA60E90
:100AB000AC6EC69A949E010EC66E000EC76ED190A3
:100AC000800ED56ECD6A000ECA6E000ECB6E948479
:100AD000BD6AB76AB66A070EB46E9250926E030E84
:100AE000006E002EFED700D0B450A19C010E0E6EF9
:100AF0000F6EF5DE040E076EFA0E0E6E8FDE072EF9
:100B0000FBD7010E066E056A81BA052A05521AE165
:100B1000065011D706C007F01F0E086E4AD7040E04
:100B2000076EFA0E0E6E7ADE072EFBD7010E0E6EE2
:100B30000F6ED5DE062A080E076EFA0E0E6E6EDEFA
:080B4000072EFBD7E0D70300EC
:020000040030CA
:0E0000003CC0390E0007A1000FC00FE00F40FA
:00000001FF
;PIC18F4550
;CRC=EA37  CREATED="30-may-11 20:50"
